{
  "_format": "hh-sol-artifact-1",
  "contractName": "VillageSACCO",
  "sourceName": "contracts/VillageSACCO.sol",
  "abi": [
    {
      "inputs": [],
      "stateMutability": "nonpayable",
      "type": "constructor"
    },
    {
      "inputs": [],
      "name": "AccessControlBadConfirmation",
      "type": "error"
    },
    {
      "inputs": [
        {
          "internalType": "address",
          "name": "account",
          "type": "address"
        },
        {
          "internalType": "bytes32",
          "name": "neededRole",
          "type": "bytes32"
        }
      ],
      "name": "AccessControlUnauthorizedAccount",
      "type": "error"
    },
    {
      "inputs": [],
      "name": "EnforcedPause",
      "type": "error"
    },
    {
      "inputs": [],
      "name": "ExpectedPause",
      "type": "error"
    },
    {
      "inputs": [],
      "name": "ReentrancyGuardReentrantCall",
      "type": "error"
    },
    {
      "anonymous": false,
      "inputs": [
        {
          "indexed": false,
          "internalType": "uint256",
          "name": "totalAmount",
          "type": "uint256"
        },
        {
          "indexed": false,
          "internalType": "uint256",
          "name": "timestamp",
          "type": "uint256"
        }
      ],
      "name": "InterestDistributed",
      "type": "event"
    },
    {
      "anonymous": false,
      "inputs": [
        {
          "indexed": true,
          "internalType": "address",
          "name": "borrower",
          "type": "address"
        },
        {
          "indexed": false,
          "internalType": "uint256",
          "name": "amount",
          "type": "uint256"
        },
        {
          "indexed": false,
          "internalType": "uint256",
          "name": "loanId",
          "type": "uint256"
        }
      ],
      "name": "LoanApproved",
      "type": "event"
    },
    {
      "anonymous": false,
      "inputs": [
        {
          "indexed": true,
          "internalType": "address",
          "name": "borrower",
          "type": "address"
        },
        {
          "indexed": false,
          "internalType": "uint256",
          "name": "amount",
          "type": "uint256"
        },
        {
          "indexed": false,
          "internalType": "uint256",
          "name": "loanId",
          "type": "uint256"
        }
      ],
      "name": "LoanRepaid",
      "type": "event"
    },
    {
      "anonymous": false,
      "inputs": [
        {
          "indexed": true,
          "internalType": "address",
          "name": "borrower",
          "type": "address"
        },
        {
          "indexed": false,
          "internalType": "uint256",
          "name": "amount",
          "type": "uint256"
        },
        {
          "indexed": false,
          "internalType": "string",
          "name": "purpose",
          "type": "string"
        }
      ],
      "name": "LoanRequested",
      "type": "event"
    },
    {
      "anonymous": false,
      "inputs": [
        {
          "indexed": true,
          "internalType": "address",
          "name": "member",
          "type": "address"
        },
        {
          "indexed": false,
          "internalType": "string",
          "name": "memberId",
          "type": "string"
        }
      ],
      "name": "MemberRegistered",
      "type": "event"
    },
    {
      "anonymous": false,
      "inputs": [
        {
          "indexed": false,
          "internalType": "address",
          "name": "account",
          "type": "address"
        }
      ],
      "name": "Paused",
      "type": "event"
    },
    {
      "anonymous": false,
      "inputs": [
        {
          "indexed": true,
          "internalType": "uint256",
          "name": "proposalId",
          "type": "uint256"
        },
        {
          "indexed": true,
          "internalType": "address",
          "name": "creator",
          "type": "address"
        },
        {
          "indexed": false,
          "internalType": "string",
          "name": "title",
          "type": "string"
        }
      ],
      "name": "ProposalCreated",
      "type": "event"
    },
    {
      "anonymous": false,
      "inputs": [
        {
          "indexed": true,
          "internalType": "bytes32",
          "name": "role",
          "type": "bytes32"
        },
        {
          "indexed": true,
          "internalType": "bytes32",
          "name": "previousAdminRole",
          "type": "bytes32"
        },
        {
          "indexed": true,
          "internalType": "bytes32",
          "name": "newAdminRole",
          "type": "bytes32"
        }
      ],
      "name": "RoleAdminChanged",
      "type": "event"
    },
    {
      "anonymous": false,
      "inputs": [
        {
          "indexed": true,
          "internalType": "bytes32",
          "name": "role",
          "type": "bytes32"
        },
        {
          "indexed": true,
          "internalType": "address",
          "name": "account",
          "type": "address"
        },
        {
          "indexed": true,
          "internalType": "address",
          "name": "sender",
          "type": "address"
        }
      ],
      "name": "RoleGranted",
      "type": "event"
    },
    {
      "anonymous": false,
      "inputs": [
        {
          "indexed": true,
          "internalType": "bytes32",
          "name": "role",
          "type": "bytes32"
        },
        {
          "indexed": true,
          "internalType": "address",
          "name": "account",
          "type": "address"
        },
        {
          "indexed": true,
          "internalType": "address",
          "name": "sender",
          "type": "address"
        }
      ],
      "name": "RoleRevoked",
      "type": "event"
    },
    {
      "anonymous": false,
      "inputs": [
        {
          "indexed": true,
          "internalType": "address",
          "name": "member",
          "type": "address"
        },
        {
          "indexed": false,
          "internalType": "uint256",
          "name": "amount",
          "type": "uint256"
        },
        {
          "indexed": false,
          "internalType": "uint256",
          "name": "newBalance",
          "type": "uint256"
        }
      ],
      "name": "SavingsDeposited",
      "type": "event"
    },
    {
      "anonymous": false,
      "inputs": [
        {
          "indexed": true,
          "internalType": "address",
          "name": "member",
          "type": "address"
        },
        {
          "indexed": false,
          "internalType": "uint256",
          "name": "amount",
          "type": "uint256"
        },
        {
          "indexed": false,
          "internalType": "uint256",
          "name": "newBalance",
          "type": "uint256"
        }
      ],
      "name": "SavingsWithdrawn",
      "type": "event"
    },
    {
      "anonymous": false,
      "inputs": [
        {
          "indexed": false,
          "internalType": "address",
          "name": "account",
          "type": "address"
        }
      ],
      "name": "Unpaused",
      "type": "event"
    },
    {
      "anonymous": false,
      "inputs": [
        {
          "indexed": true,
          "internalType": "uint256",
          "name": "proposalId",
          "type": "uint256"
        },
        {
          "indexed": true,
          "internalType": "address",
          "name": "voter",
          "type": "address"
        },
        {
          "indexed": false,
          "internalType": "bool",
          "name": "support",
          "type": "bool"
        }
      ],
      "name": "VoteCast",
      "type": "event"
    },
    {
      "inputs": [],
      "name": "ADMIN_ROLE",
      "outputs": [
        {
          "internalType": "bytes32",
          "name": "",
          "type": "bytes32"
        }
      ],
      "stateMutability": "view",
      "type": "function"
    },
    {
      "inputs": [],
      "name": "DEFAULT_ADMIN_ROLE",
      "outputs": [
        {
          "internalType": "bytes32",
          "name": "",
          "type": "bytes32"
        }
      ],
      "stateMutability": "view",
      "type": "function"
    },
    {
      "inputs": [],
      "name": "MEMBER_ROLE",
      "outputs": [
        {
          "internalType": "bytes32",
          "name": "",
          "type": "bytes32"
        }
      ],
      "stateMutability": "view",
      "type": "function"
    },
    {
      "inputs": [
        {
          "internalType": "address",
          "name": "memberAddress",
          "type": "address"
        }
      ],
      "name": "activateMember",
      "outputs": [],
      "stateMutability": "nonpayable",
      "type": "function"
    },
    {
      "inputs": [
        {
          "internalType": "address",
          "name": "admin",
          "type": "address"
        }
      ],
      "name": "addAdmin",
      "outputs": [],
      "stateMutability": "nonpayable",
      "type": "function"
    },
    {
      "inputs": [
        {
          "internalType": "uint256",
          "name": "loanId",
          "type": "uint256"
        }
      ],
      "name": "approveLoan",
      "outputs": [],
      "stateMutability": "nonpayable",
      "type": "function"
    },
    {
      "inputs": [
        {
          "internalType": "string",
          "name": "title",
          "type": "string"
        },
        {
          "internalType": "string",
          "name": "description",
          "type": "string"
        },
        {
          "internalType": "uint256",
          "name": "votingDuration",
          "type": "uint256"
        }
      ],
      "name": "createProposal",
      "outputs": [
        {
          "internalType": "uint256",
          "name": "",
          "type": "uint256"
        }
      ],
      "stateMutability": "nonpayable",
      "type": "function"
    },
    {
      "inputs": [
        {
          "internalType": "address",
          "name": "memberAddress",
          "type": "address"
        }
      ],
      "name": "deactivateMember",
      "outputs": [],
      "stateMutability": "nonpayable",
      "type": "function"
    },
    {
      "inputs": [],
      "name": "deposit",
      "outputs": [],
      "stateMutability": "payable",
      "type": "function"
    },
    {
      "inputs": [],
      "name": "distributeInterest",
      "outputs": [],
      "stateMutability": "nonpayable",
      "type": "function"
    },
    {
      "inputs": [],
      "name": "emergencyWithdraw",
      "outputs": [],
      "stateMutability": "nonpayable",
      "type": "function"
    },
    {
      "inputs": [
        {
          "internalType": "uint256",
          "name": "loanId",
          "type": "uint256"
        }
      ],
      "name": "getLoanInfo",
      "outputs": [
        {
          "internalType": "address",
          "name": "borrower",
          "type": "address"
        },
        {
          "internalType": "uint256",
          "name": "amount",
          "type": "uint256"
        },
        {
          "internalType": "uint256",
          "name": "interestRate",
          "type": "uint256"
        },
        {
          "internalType": "uint256",
          "name": "termMonths",
          "type": "uint256"
        },
        {
          "internalType": "uint256",
          "name": "monthlyPayment",
          "type": "uint256"
        },
        {
          "internalType": "uint256",
          "name": "remainingBalance",
          "type": "uint256"
        },
        {
          "internalType": "uint256",
          "name": "disbursedAt",
          "type": "uint256"
        },
        {
          "internalType": "uint256",
          "name": "nextPaymentDue",
          "type": "uint256"
        },
        {
          "internalType": "string",
          "name": "purpose",
          "type": "string"
        },
        {
          "internalType": "bool",
          "name": "isActive",
          "type": "bool"
        }
      ],
      "stateMutability": "view",
      "type": "function"
    },
    {
      "inputs": [
        {
          "internalType": "address",
          "name": "memberAddress",
          "type": "address"
        }
      ],
      "name": "getMemberInfo",
      "outputs": [
        {
          "internalType": "string",
          "name": "memberId",
          "type": "string"
        },
        {
          "internalType": "uint256",
          "name": "savingsBalance",
          "type": "uint256"
        },
        {
          "internalType": "uint256",
          "name": "totalDeposits",
          "type": "uint256"
        },
        {
          "internalType": "uint256",
          "name": "totalWithdrawals",
          "type": "uint256"
        },
        {
          "internalType": "uint256",
          "name": "joinedAt",
          "type": "uint256"
        },
        {
          "internalType": "bool",
          "name": "isActive",
          "type": "bool"
        }
      ],
      "stateMutability": "view",
      "type": "function"
    },
    {
      "inputs": [
        {
          "internalType": "uint256",
          "name": "proposalId",
          "type": "uint256"
        }
      ],
      "name": "getProposalInfo",
      "outputs": [
        {
          "internalType": "string",
          "name": "title",
          "type": "string"
        },
        {
          "internalType": "string",
          "name": "description",
          "type": "string"
        },
        {
          "internalType": "address",
          "name": "creator",
          "type": "address"
        },
        {
          "internalType": "uint256",
          "name": "votesFor",
          "type": "uint256"
        },
        {
          "internalType": "uint256",
          "name": "votesAgainst",
          "type": "uint256"
        },
        {
          "internalType": "uint256",
          "name": "totalVotes",
          "type": "uint256"
        },
        {
          "internalType": "uint256",
          "name": "deadline",
          "type": "uint256"
        },
        {
          "internalType": "bool",
          "name": "executed",
          "type": "bool"
        }
      ],
      "stateMutability": "view",
      "type": "function"
    },
    {
      "inputs": [
        {
          "internalType": "bytes32",
          "name": "role",
          "type": "bytes32"
        }
      ],
      "name": "getRoleAdmin",
      "outputs": [
        {
          "internalType": "bytes32",
          "name": "",
          "type": "bytes32"
        }
      ],
      "stateMutability": "view",
      "type": "function"
    },
    {
      "inputs": [],
      "name": "getTotalStats",
      "outputs": [
        {
          "internalType": "uint256",
          "name": "_totalSavings",
          "type": "uint256"
        },
        {
          "internalType": "uint256",
          "name": "_totalLoansIssued",
          "type": "uint256"
        },
        {
          "internalType": "uint256",
          "name": "_memberCount",
          "type": "uint256"
        },
        {
          "internalType": "uint256",
          "name": "_nextLoanId",
          "type": "uint256"
        },
        {
          "internalType": "uint256",
          "name": "_nextProposalId",
          "type": "uint256"
        }
      ],
      "stateMutability": "view",
      "type": "function"
    },
    {
      "inputs": [
        {
          "internalType": "bytes32",
          "name": "role",
          "type": "bytes32"
        },
        {
          "internalType": "address",
          "name": "account",
          "type": "address"
        }
      ],
      "name": "grantRole",
      "outputs": [],
      "stateMutability": "nonpayable",
      "type": "function"
    },
    {
      "inputs": [
        {
          "internalType": "bytes32",
          "name": "role",
          "type": "bytes32"
        },
        {
          "internalType": "address",
          "name": "account",
          "type": "address"
        }
      ],
      "name": "hasRole",
      "outputs": [
        {
          "internalType": "bool",
          "name": "",
          "type": "bool"
        }
      ],
      "stateMutability": "view",
      "type": "function"
    },
    {
      "inputs": [],
      "name": "interestRate",
      "outputs": [
        {
          "internalType": "uint256",
          "name": "",
          "type": "uint256"
        }
      ],
      "stateMutability": "view",
      "type": "function"
    },
    {
      "inputs": [
        {
          "internalType": "address",
          "name": "account",
          "type": "address"
        }
      ],
      "name": "isAdmin",
      "outputs": [
        {
          "internalType": "bool",
          "name": "",
          "type": "bool"
        }
      ],
      "stateMutability": "view",
      "type": "function"
    },
    {
      "inputs": [
        {
          "internalType": "address",
          "name": "account",
          "type": "address"
        }
      ],
      "name": "isMember",
      "outputs": [
        {
          "internalType": "bool",
          "name": "",
          "type": "bool"
        }
      ],
      "stateMutability": "view",
      "type": "function"
    },
    {
      "inputs": [],
      "name": "loanInterestRate",
      "outputs": [
        {
          "internalType": "uint256",
          "name": "",
          "type": "uint256"
        }
      ],
      "stateMutability": "view",
      "type": "function"
    },
    {
      "inputs": [
        {
          "internalType": "uint256",
          "name": "",
          "type": "uint256"
        }
      ],
      "name": "loans",
      "outputs": [
        {
          "internalType": "address",
          "name": "borrower",
          "type": "address"
        },
        {
          "internalType": "uint256",
          "name": "amount",
          "type": "uint256"
        },
        {
          "internalType": "uint256",
          "name": "interestRate",
          "type": "uint256"
        },
        {
          "internalType": "uint256",
          "name": "termMonths",
          "type": "uint256"
        },
        {
          "internalType": "uint256",
          "name": "monthlyPayment",
          "type": "uint256"
        },
        {
          "internalType": "uint256",
          "name": "remainingBalance",
          "type": "uint256"
        },
        {
          "internalType": "uint256",
          "name": "disbursedAt",
          "type": "uint256"
        },
        {
          "internalType": "uint256",
          "name": "nextPaymentDue",
          "type": "uint256"
        },
        {
          "internalType": "string",
          "name": "purpose",
          "type": "string"
        },
        {
          "internalType": "bool",
          "name": "isActive",
          "type": "bool"
        }
      ],
      "stateMutability": "view",
      "type": "function"
    },
    {
      "inputs": [
        {
          "internalType": "uint256",
          "name": "",
          "type": "uint256"
        }
      ],
      "name": "memberList",
      "outputs": [
        {
          "internalType": "address",
          "name": "",
          "type": "address"
        }
      ],
      "stateMutability": "view",
      "type": "function"
    },
    {
      "inputs": [
        {
          "internalType": "address",
          "name": "",
          "type": "address"
        }
      ],
      "name": "members",
      "outputs": [
        {
          "internalType": "string",
          "name": "memberId",
          "type": "string"
        },
        {
          "internalType": "uint256",
          "name": "savingsBalance",
          "type": "uint256"
        },
        {
          "internalType": "uint256",
          "name": "totalDeposits",
          "type": "uint256"
        },
        {
          "internalType": "uint256",
          "name": "totalWithdrawals",
          "type": "uint256"
        },
        {
          "internalType": "uint256",
          "name": "joinedAt",
          "type": "uint256"
        },
        {
          "internalType": "bool",
          "name": "isActive",
          "type": "bool"
        }
      ],
      "stateMutability": "view",
      "type": "function"
    },
    {
      "inputs": [],
      "name": "minimumSavingsForLoan",
      "outputs": [
        {
          "internalType": "uint256",
          "name": "",
          "type": "uint256"
        }
      ],
      "stateMutability": "view",
      "type": "function"
    },
    {
      "inputs": [],
      "name": "nextLoanId",
      "outputs": [
        {
          "internalType": "uint256",
          "name": "",
          "type": "uint256"
        }
      ],
      "stateMutability": "view",
      "type": "function"
    },
    {
      "inputs": [],
      "name": "nextProposalId",
      "outputs": [
        {
          "internalType": "uint256",
          "name": "",
          "type": "uint256"
        }
      ],
      "stateMutability": "view",
      "type": "function"
    },
    {
      "inputs": [],
      "name": "pause",
      "outputs": [],
      "stateMutability": "nonpayable",
      "type": "function"
    },
    {
      "inputs": [],
      "name": "paused",
      "outputs": [
        {
          "internalType": "bool",
          "name": "",
          "type": "bool"
        }
      ],
      "stateMutability": "view",
      "type": "function"
    },
    {
      "inputs": [
        {
          "internalType": "uint256",
          "name": "",
          "type": "uint256"
        }
      ],
      "name": "proposals",
      "outputs": [
        {
          "internalType": "string",
          "name": "title",
          "type": "string"
        },
        {
          "internalType": "string",
          "name": "description",
          "type": "string"
        },
        {
          "internalType": "address",
          "name": "creator",
          "type": "address"
        },
        {
          "internalType": "uint256",
          "name": "votesFor",
          "type": "uint256"
        },
        {
          "internalType": "uint256",
          "name": "votesAgainst",
          "type": "uint256"
        },
        {
          "internalType": "uint256",
          "name": "totalVotes",
          "type": "uint256"
        },
        {
          "internalType": "uint256",
          "name": "deadline",
          "type": "uint256"
        },
        {
          "internalType": "bool",
          "name": "executed",
          "type": "bool"
        }
      ],
      "stateMutability": "view",
      "type": "function"
    },
    {
      "inputs": [
        {
          "internalType": "address",
          "name": "memberAddress",
          "type": "address"
        },
        {
          "internalType": "string",
          "name": "memberId",
          "type": "string"
        }
      ],
      "name": "registerMember",
      "outputs": [],
      "stateMutability": "nonpayable",
      "type": "function"
    },
    {
      "inputs": [
        {
          "internalType": "address",
          "name": "admin",
          "type": "address"
        }
      ],
      "name": "removeAdmin",
      "outputs": [],
      "stateMutability": "nonpayable",
      "type": "function"
    },
    {
      "inputs": [
        {
          "internalType": "bytes32",
          "name": "role",
          "type": "bytes32"
        },
        {
          "internalType": "address",
          "name": "callerConfirmation",
          "type": "address"
        }
      ],
      "name": "renounceRole",
      "outputs": [],
      "stateMutability": "nonpayable",
      "type": "function"
    },
    {
      "inputs": [
        {
          "internalType": "uint256",
          "name": "loanId",
          "type": "uint256"
        }
      ],
      "name": "repayLoan",
      "outputs": [],
      "stateMutability": "payable",
      "type": "function"
    },
    {
      "inputs": [
        {
          "internalType": "uint256",
          "name": "amount",
          "type": "uint256"
        },
        {
          "internalType": "uint256",
          "name": "termMonths",
          "type": "uint256"
        },
        {
          "internalType": "string",
          "name": "purpose",
          "type": "string"
        }
      ],
      "name": "requestLoan",
      "outputs": [
        {
          "internalType": "uint256",
          "name": "",
          "type": "uint256"
        }
      ],
      "stateMutability": "nonpayable",
      "type": "function"
    },
    {
      "inputs": [
        {
          "internalType": "bytes32",
          "name": "role",
          "type": "bytes32"
        },
        {
          "internalType": "address",
          "name": "account",
          "type": "address"
        }
      ],
      "name": "revokeRole",
      "outputs": [],
      "stateMutability": "nonpayable",
      "type": "function"
    },
    {
      "inputs": [
        {
          "internalType": "bytes4",
          "name": "interfaceId",
          "type": "bytes4"
        }
      ],
      "name": "supportsInterface",
      "outputs": [
        {
          "internalType": "bool",
          "name": "",
          "type": "bool"
        }
      ],
      "stateMutability": "view",
      "type": "function"
    },
    {
      "inputs": [],
      "name": "totalLoansIssued",
      "outputs": [
        {
          "internalType": "uint256",
          "name": "",
          "type": "uint256"
        }
      ],
      "stateMutability": "view",
      "type": "function"
    },
    {
      "inputs": [],
      "name": "totalSavings",
      "outputs": [
        {
          "internalType": "uint256",
          "name": "",
          "type": "uint256"
        }
      ],
      "stateMutability": "view",
      "type": "function"
    },
    {
      "inputs": [],
      "name": "unpause",
      "outputs": [],
      "stateMutability": "nonpayable",
      "type": "function"
    },
    {
      "inputs": [
        {
          "internalType": "uint256",
          "name": "proposalId",
          "type": "uint256"
        },
        {
          "internalType": "bool",
          "name": "support",
          "type": "bool"
        }
      ],
      "name": "vote",
      "outputs": [],
      "stateMutability": "nonpayable",
      "type": "function"
    },
    {
      "inputs": [
        {
          "internalType": "uint256",
          "name": "amount",
          "type": "uint256"
        }
      ],
      "name": "withdraw",
      "outputs": [],
      "stateMutability": "nonpayable",
      "type": "function"
    },
    {
      "stateMutability": "payable",
      "type": "receive"
    }
  ],
  "bytecode": "0x60806040526101f4600b556105dc600c5568056bc75e2d63100000600d553480156200002a57600080fd5b50600180556200003c6000336200007a565b50620000697fa49807205ce4d355092ef5a8a18f56e8913cf4a201fbe287825b095693c21775336200007a565b5060016009819055600a5562000129565b6000828152602081815260408083206001600160a01b038516845290915281205460ff166200011f576000838152602081815260408083206001600160a01b03861684529091529020805460ff19166001179055620000d63390565b6001600160a01b0316826001600160a01b0316847f2f8788117e7eff1d82e926ec794901d17c78024a50270940304540a733656f0d60405160405180910390a450600162000123565b5060005b92915050565b61305280620001396000396000f3fe6080604052600436106102605760003560e01c80638456cb5911610144578063bc903cb8116100b6578063d3602dc61161007a578063d3602dc6146106fe578063d4f3476d1461071e578063d547741f1461073e578063db2e21bc1461075e578063e1ec3c6814610773578063fc5cbf1d1461079357600080fd5b8063bc903cb81461068a578063c222bcea146106aa578063c7959d04146106c0578063c9d27afe146106d6578063d0e30db0146106f657600080fd5b8063a10f469e11610108578063a10f469e146105c8578063a217fddf146105ea578063a230c524146105ff578063aadc1ac11461061f578063ab7b1c891461063f578063b307fc6d1461065257600080fd5b80638456cb591461055257806387c51459146105675780638b3651ad1461057d57806391d14854146105925780639bf42b3f146105b257600080fd5b80632de6dc12116101dd5780635c975abb116101a15780635c975abb146104a25780635f1231ea146104ba57806370480275146104da57806375b238fc146104fa57806378ab262e1461051c5780637c3a00fd1461053c57600080fd5b80632de6dc12146104175780632e1a7d4d1461042d5780632f2ff15d1461044d57806336568abe1461046d5780633f4ba83a1461048d57600080fd5b80630ce0ebf4116102245780630ce0ebf4146103635780631785f53c14610391578063248a9ca3146103b157806324d7806c146103e15780632ab09d141461040157600080fd5b8063013cf08b1461026c57806301ffc9a7146102a95780630714012c146102d957806308ae4b0c1461030f5780630aa5adfc1461034157600080fd5b3661026757005b600080fd5b34801561027857600080fd5b5061028c61028736600461289d565b6107d7565b6040516102a09897969594939291906128fc565b60405180910390f35b3480156102b557600080fd5b506102c96102c4366004612962565b610937565b60405190151581526020016102a0565b3480156102e557600080fd5b506102f96102f436600461289d565b61096e565b6040516102a09a9998979695949392919061298c565b34801561031b57600080fd5b5061032f61032a366004612a10565b610b18565b6040516102a096959493929190612a2b565b34801561034d57600080fd5b5061036161035c366004612b0c565b610bd8565b005b34801561036f57600080fd5b5061038361037e366004612b5a565b610da6565b6040519081526020016102a0565b34801561039d57600080fd5b506103616103ac366004612a10565b610f59565b3480156103bd57600080fd5b506103836103cc36600461289d565b60009081526020819052604090206001015490565b3480156103ed57600080fd5b506102c96103fc366004612a10565b610ff9565b34801561040d57600080fd5b50610383600a5481565b34801561042357600080fd5b50610383600d5481565b34801561043957600080fd5b5061036161044836600461289d565b611013565b34801561045957600080fd5b50610361610468366004612bc7565b6111f9565b34801561047957600080fd5b50610361610488366004612bc7565b611224565b34801561049957600080fd5b5061036161125c565b3480156104ae57600080fd5b5060025460ff166102c9565b3480156104c657600080fd5b5061032f6104d5366004612a10565b61129a565b3480156104e657600080fd5b506103616104f5366004612a10565b6113e0565b34801561050657600080fd5b50610383600080516020612fdd83398151915281565b34801561052857600080fd5b50610361610537366004612a10565b61142c565b34801561054857600080fd5b50610383600b5481565b34801561055e57600080fd5b506103616114da565b34801561057357600080fd5b5061038360095481565b34801561058957600080fd5b50610361611516565b34801561059e57600080fd5b506102c96105ad366004612bc7565b61172e565b3480156105be57600080fd5b5061038360075481565b3480156105d457600080fd5b50610383600080516020612ffd83398151915281565b3480156105f657600080fd5b50610383600081565b34801561060b57600080fd5b506102c961061a366004612a10565b611757565b34801561062b57600080fd5b5061036161063a36600461289d565b611771565b61036161064d36600461289d565b61196b565b34801561065e57600080fd5b5061067261066d36600461289d565b611b91565b6040516001600160a01b0390911681526020016102a0565b34801561069657600080fd5b5061028c6106a536600461289d565b611bbb565b3480156106b657600080fd5b50610383600c5481565b3480156106cc57600080fd5b5061038360085481565b3480156106e257600080fd5b506103616106f1366004612bf3565b611d58565b610361611f56565b34801561070a57600080fd5b50610383610719366004612c28565b6120ad565b34801561072a57600080fd5b50610361610739366004612a10565b6123bf565b34801561074a57600080fd5b50610361610759366004612bc7565b61246a565b34801561076a57600080fd5b5061036161248f565b34801561077f57600080fd5b506102f961078e36600461289d565b6124ef565b34801561079f57600080fd5b50600754600854600654600954600a54604080519586526020860194909452928401919091526060830152608082015260a0016102a0565b6005602052600090815260409020805481906107f290612c78565b80601f016020809104026020016040519081016040528092919081815260200182805461081e90612c78565b801561086b5780601f106108405761010080835404028352916020019161086b565b820191906000526020600020905b81548152906001019060200180831161084e57829003601f168201915b50505050509080600101805461088090612c78565b80601f01602080910402602001604051908101604052809291908181526020018280546108ac90612c78565b80156108f95780601f106108ce576101008083540402835291602001916108f9565b820191906000526020600020905b8154815290600101906020018083116108dc57829003601f168201915b5050506002840154600385015460048601546005870154600688015460079098015496976001600160a01b0390941696929550909350919060ff1688565b60006001600160e01b03198216637965db0b60e01b148061096857506301ffc9a760e01b6001600160e01b03198316145b92915050565b6000806000806000806000806060600080600460008d8152602001908152602001600020604051806101400160405290816000820160009054906101000a90046001600160a01b03166001600160a01b03166001600160a01b0316815260200160018201548152602001600282015481526020016003820154815260200160048201548152602001600582015481526020016006820154815260200160078201548152602001600882018054610a2390612c78565b80601f0160208091040260200160405190810160405280929190818152602001828054610a4f90612c78565b8015610a9c5780601f10610a7157610100808354040283529160200191610a9c565b820191906000526020600020905b815481529060010190602001808311610a7f57829003601f168201915b505050505081526020016009820160009054906101000a900460ff1615151515815250509050806000015181602001518260400151836060015184608001518560a001518660c001518760e001518861010001518961012001519a509a509a509a509a509a509a509a509a509a50509193959799509193959799565b600360205260009081526040902080548190610b3390612c78565b80601f0160208091040260200160405190810160405280929190818152602001828054610b5f90612c78565b8015610bac5780601f10610b8157610100808354040283529160200191610bac565b820191906000526020600020905b815481529060010190602001808311610b8f57829003601f168201915b505050600184015460028501546003860154600487015460059097015495969295919450925060ff1686565b610bf0600080516020612fdd8339815191523361172e565b610c155760405162461bcd60e51b8152600401610c0c90612cb2565b60405180910390fd5b610c2d600080516020612ffd8339815191528361172e565b15610c6d5760405162461bcd60e51b815260206004820152601060248201526f20b63932b0b23c90309036b2b6b132b960811b6044820152606401610c0c565b610c85600080516020612ffd833981519152836111f9565b6040805160c0810182528281526000602080830182905282840182905260608301829052426080840152600160a08401526001600160a01b0386168252600390529190912081518190610cd89082612d26565b5060208201516001828101919091556040808401516002840155606084015160038401556080840151600484015560a0909301516005909201805460ff1916921515929092179091556006805491820181556000527ff652222313e28459528d920b65115c16c04f3efc82aaedc97be59f3f377c0d3f0180546001600160a01b0319166001600160a01b03851690811790915590517f3b09349069a59bcde8c2609afc86c80b77c81085ac8cd8662981621f7ea3574b90610d9a908490612de6565b60405180910390a25050565b6000610dc0600080516020612ffd8339815191523361172e565b8015610dde57503360009081526003602052604090206005015460ff165b610dfa5760405162461bcd60e51b8152600401610c0c90612df9565b6000845111610e435760405162461bcd60e51b81526020600482015260156024820152745469746c652063616e6e6f7420626520656d70747960581b6044820152606401610c0c565b600082118015610e56575062278d008211155b610ea25760405162461bcd60e51b815260206004820152601760248201527f496e76616c696420766f74696e67206475726174696f6e0000000000000000006044820152606401610c0c565b600a805460009182610eb383612e3d565b90915550600081815260056020526040902090915080610ed38782612d26565b5060018101610ee28682612d26565b506002810180546001600160a01b03191633179055610f018442612e56565b600682015560078101805460ff19169055604051339083907f7585f467599d0f008985f231af99293be388626ac16ca59505c2f8f88969cd6390610f46908a90612de6565b60405180910390a35090505b9392505050565b610f71600080516020612fdd8339815191523361172e565b610f8d5760405162461bcd60e51b8152600401610c0c90612cb2565b336001600160a01b03821603610fde5760405162461bcd60e51b815260206004820152601660248201527521b0b73737ba103932b6b7bb32903cb7bab939b2b63360511b6044820152606401610c0c565b610ff6600080516020612fdd8339815191528261246a565b50565b6000610968600080516020612fdd8339815191528361172e565b61102b600080516020612ffd8339815191523361172e565b801561104957503360009081526003602052604090206005015460ff165b6110655760405162461bcd60e51b8152600401610c0c90612df9565b61106d6125d7565b336000908152600360205260409020816110da5760405162461bcd60e51b815260206004820152602860248201527f5769746864726177616c20616d6f756e74206d75737420626520677265617465604482015267072207468616e20360c41b6064820152608401610c0c565b818160010154101561112e5760405162461bcd60e51b815260206004820152601c60248201527f496e73756666696369656e7420736176696e67732062616c616e6365000000006044820152606401610c0c565b818160010160008282546111429190612e69565b925050819055508181600301600082825461115d9190612e56565b9250508190555081600760008282546111769190612e69565b9091555050604051339083156108fc029084906000818181858888f193505050501580156111a8573d6000803e3d6000fd5b50600181015460405133917f93da32e64263d25ace24ccb77425144ddc5d0dd0f4dfc1d3bc6ff0114ac7049a916111e791868252602082015260400190565b60405180910390a250610ff660018055565b60008281526020819052604090206001015461121481612601565b61121e838361260b565b50505050565b6001600160a01b038116331461124d5760405163334bd91960e11b815260040160405180910390fd5b611257828261269d565b505050565b611274600080516020612fdd8339815191523361172e565b6112905760405162461bcd60e51b8152600401610c0c90612cb2565b611298612708565b565b606060008060008060008060036000896001600160a01b03166001600160a01b031681526020019081526020016000206040518060c00160405290816000820180546112e590612c78565b80601f016020809104026020016040519081016040528092919081815260200182805461131190612c78565b801561135e5780601f106113335761010080835404028352916020019161135e565b820191906000526020600020905b81548152906001019060200180831161134157829003601f168201915b50505050508152602001600182015481526020016002820154815260200160038201548152602001600482015481526020016005820160009054906101000a900460ff1615151515815250509050806000015181602001518260400151836060015184608001518560a001519650965096509650965096505091939550919395565b6113f8600080516020612fdd8339815191523361172e565b6114145760405162461bcd60e51b8152600401610c0c90612cb2565b610ff6600080516020612fdd833981519152826111f9565b611444600080516020612fdd8339815191523361172e565b6114605760405162461bcd60e51b8152600401610c0c90612cb2565b611478600080516020612ffd8339815191528261172e565b6114b35760405162461bcd60e51b815260206004820152600c60248201526b2737ba10309036b2b6b132b960a11b6044820152606401610c0c565b6001600160a01b03166000908152600360205260409020600501805460ff19166001179055565b6114f2600080516020612fdd8339815191523361172e565b61150e5760405162461bcd60e51b8152600401610c0c90612cb2565b61129861275a565b61152e600080516020612fdd8339815191523361172e565b61154a5760405162461bcd60e51b8152600401610c0c90612cb2565b6000600754116115a85760405162461bcd60e51b8152602060048201526024808201527f4e6f20736176696e677320746f206469737472696275746520696e74657265736044820152633a1037b760e11b6064820152608401610c0c565b6000600c612710600b546007546115bf9190612e7c565b6115c99190612e93565b6115d39190612e93565b9050804710156116385760405162461bcd60e51b815260206004820152602a60248201527f496e73756666696369656e7420636f6e74726163742062616c616e636520666f6044820152691c881a5b9d195c995cdd60b21b6064820152608401610c0c565b60065460005b818110156116f15760006006828154811061165b5761165b612eb5565b60009182526020808320909101546001600160a01b03168083526003909152604090912060058101549192509060ff16801561169b575060008160010154115b156116dc5760006007548683600101546116b59190612e7c565b6116bf9190612e93565b9050808260010160008282546116d59190612e56565b9091555050505b505080806116e990612e3d565b91505061163e565b50604080518381524260208201527f42d029138c014f559459aa5f9890a42034310bbbad272115d31bc70d80c00b17910160405180910390a15050565b6000918252602082815260408084206001600160a01b0393909316845291905290205460ff1690565b6000610968600080516020612ffd8339815191528361172e565b611789600080516020612fdd8339815191523361172e565b6117a55760405162461bcd60e51b8152600401610c0c90612cb2565b600081815260046020526040902080546001600160a01b03166118005760405162461bcd60e51b8152602060048201526013602482015272131bd85b88191bd95cc81b9bdd08195e1a5cdd606a1b6044820152606401610c0c565b600981015460ff161561184b5760405162461bcd60e51b81526020600482015260136024820152724c6f616e20616c72656164792061637469766560681b6044820152606401610c0c565b806001015447101561189f5760405162461bcd60e51b815260206004820152601d60248201527f496e73756666696369656e7420636f6e74726163742062616c616e63650000006044820152606401610c0c565b60098101805460ff1916600117905542600682018190556118c39062278d00612e56565b60078201556001810154600880546000906118df908490612e56565b9091555050805460018201546040516001600160a01b039092169181156108fc0291906000818181858888f19350505050158015611921573d6000803e3d6000fd5b508054600182015460408051918252602082018590526001600160a01b03909216917f1a8ecea83cbcff0f4c46b7e42f55227161863220eb7d439fde442dfdc0ddbc4e9101610d9a565b611983600080516020612ffd8339815191523361172e565b80156119a157503360009081526003602052604090206005015460ff165b6119bd5760405162461bcd60e51b8152600401610c0c90612df9565b6119c56125d7565b600081815260046020526040902080546001600160a01b03163314611a1c5760405162461bcd60e51b815260206004820152600d60248201526c2737ba103cb7bab9103637b0b760991b6044820152606401610c0c565b600981015460ff16611a625760405162461bcd60e51b815260206004820152600f60248201526e4c6f616e206e6f742061637469766560881b6044820152606401610c0c565b60003411611ab25760405162461bcd60e51b815260206004820152601e60248201527f5061796d656e74206d7573742062652067726561746572207468616e203000006044820152606401610c0c565b8060050154341115611b105760405162461bcd60e51b815260206004820152602160248201527f5061796d656e7420657863656564732072656d61696e696e672062616c616e636044820152606560f81b6064820152608401610c0c565b34816005016000828254611b249190612e69565b90915550506005810154600003611b465760098101805460ff19169055611b59565b611b534262278d00612e56565b60078201555b604080513481526020810184905233917fc7ce0a35f17b490de2a317e7fecb2cae86b1abffb03800b2f49282352138269891016111e7565b60068181548110611ba157600080fd5b6000918252602090912001546001600160a01b0316905081565b6060806000806000806000806000600560008b8152602001908152602001600020905080600001816001018260020160009054906101000a90046001600160a01b031683600301548460040154856005015486600601548760070160009054906101000a900460ff16878054611c3090612c78565b80601f0160208091040260200160405190810160405280929190818152602001828054611c5c90612c78565b8015611ca95780601f10611c7e57610100808354040283529160200191611ca9565b820191906000526020600020905b815481529060010190602001808311611c8c57829003601f168201915b50505050509750868054611cbc90612c78565b80601f0160208091040260200160405190810160405280929190818152602001828054611ce890612c78565b8015611d355780601f10611d0a57610100808354040283529160200191611d35565b820191906000526020600020905b815481529060010190602001808311611d1857829003601f168201915b505050505096509850985098509850985098509850985050919395975091939597565b611d70600080516020612ffd8339815191523361172e565b8015611d8e57503360009081526003602052604090206005015460ff165b611daa5760405162461bcd60e51b8152600401610c0c90612df9565b600082815260056020526040902060028101546001600160a01b0316611e125760405162461bcd60e51b815260206004820152601760248201527f50726f706f73616c20646f6573206e6f742065786973740000000000000000006044820152606401610c0c565b80600601544210611e5b5760405162461bcd60e51b8152602060048201526013602482015272159bdd1a5b99c81c195c9a5bd908195b991959606a1b6044820152606401610c0c565b33600090815260088201602052604090205460ff1615611ead5760405162461bcd60e51b815260206004820152600d60248201526c105b1c9958591e481d9bdd1959609a1b6044820152606401610c0c565b3360009081526008820160205260408120805460ff1916600117905560058201805491611ed983612e3d565b91905055508115611f0057600381018054906000611ef683612e3d565b9190505550611f18565b600481018054906000611f1283612e3d565b91905055505b6040518215158152339084907fe71fcdac32df1877c1700e7bda2a03157e20993363a28fc35ac495cefc76e4d49060200160405180910390a3505050565b611f6e600080516020612ffd8339815191523361172e565b8015611f8c57503360009081526003602052604090206005015460ff165b611fa85760405162461bcd60e51b8152600401610c0c90612df9565b611fb06125d7565b600034116120005760405162461bcd60e51b815260206004820152601e60248201527f4465706f736974206d7573742062652067726561746572207468616e203000006044820152606401610c0c565b33600090815260036020526040812060018101805491923492612024908490612e56565b925050819055503481600201600082825461203f9190612e56565b9250508190555034600760008282546120589190612e56565b9091555050600181015460405133917f1a96ef469e332471886959f90a71ae924792a05ad7eea4e43a1c29becdf238ed9161209b91348252602082015260400190565b60405180910390a25061129860018055565b60006120c7600080516020612ffd8339815191523361172e565b80156120e557503360009081526003602052604090206005015460ff165b6121015760405162461bcd60e51b8152600401610c0c90612df9565b6000841161215c5760405162461bcd60e51b815260206004820152602260248201527f4c6f616e20616d6f756e74206d7573742062652067726561746572207468616e604482015261020360f41b6064820152608401610c0c565b60008311801561216d5750603c8311155b6121ad5760405162461bcd60e51b8152602060048201526011602482015270496e76616c6964206c6f616e207465726d60781b6044820152606401610c0c565b600d543360009081526003602052604090206001015410156122235760405162461bcd60e51b815260206004820152602960248201527f496e73756666696369656e7420736176696e677320666f72206c6f616e20656c60448201526869676962696c69747960b81b6064820152608401610c0c565b6000612710600c80546122369190612e93565b6122409190612e93565b9050600061224f868387612797565b60098054919250600091908261226483612e3d565b919050559050604051806101400160405280336001600160a01b03168152602001888152602001600c5481526020018781526020018381526020018881526020016000815260200160008152602001868152602001600015158152506004600083815260200190815260200160002060008201518160000160006101000a8154816001600160a01b0302191690836001600160a01b031602179055506020820151816001015560408201518160020155606082015181600301556080820151816004015560a0820151816005015560c0820151816006015560e0820151816007015561010082015181600801908161235c9190612d26565b5061012091909101516009909101805460ff191691151591909117905560405133907f1fccd3ba9f6525e966a9a09210135a30acceb5d0403f2319669040cad6c96f00906123ad908a908990612ecb565b60405180910390a29695505050505050565b6123d7600080516020612fdd8339815191523361172e565b6123f35760405162461bcd60e51b8152600401610c0c90612cb2565b61240b600080516020612ffd8339815191528261172e565b6124465760405162461bcd60e51b815260206004820152600c60248201526b2737ba10309036b2b6b132b960a11b6044820152606401610c0c565b6001600160a01b03166000908152600360205260409020600501805460ff19169055565b60008281526020819052604090206001015461248581612601565b61121e838361269d565b6124a7600080516020612fdd8339815191523361172e565b6124c35760405162461bcd60e51b8152600401610c0c90612cb2565b60405133904780156108fc02916000818181858888f19350505050158015610ff6573d6000803e3d6000fd5b60046020819052600091825260409091208054600182015460028301546003840154948401546005850154600686015460078701546008880180546001600160a01b039098169996989597949593949293919261254b90612c78565b80601f016020809104026020016040519081016040528092919081815260200182805461257790612c78565b80156125c45780601f10612599576101008083540402835291602001916125c4565b820191906000526020600020905b8154815290600101906020018083116125a757829003601f168201915b5050506009909301549192505060ff168a565b6002600154036125fa57604051633ee5aeb560e01b815260040160405180910390fd5b6002600155565b610ff68133612819565b6000612617838361172e565b612695576000838152602081815260408083206001600160a01b03861684529091529020805460ff1916600117905561264d3390565b6001600160a01b0316826001600160a01b0316847f2f8788117e7eff1d82e926ec794901d17c78024a50270940304540a733656f0d60405160405180910390a4506001610968565b506000610968565b60006126a9838361172e565b15612695576000838152602081815260408083206001600160a01b0386168085529252808320805460ff1916905551339286917ff6391f5c32d9c69d2a47ea670b442974b53935d1edc7fd64eb21e047a839171b9190a4506001610968565b612710612856565b6002805460ff191690557f5db9ee0a495bf2e6ff9c91a7834c1ba4fdd244a5e8aa4e537bd38aeae4b073aa335b6040516001600160a01b03909116815260200160405180910390a1565b612762612879565b6002805460ff191660011790557f62e78cea01bee320cd4e420270b5ea74000d11b0c9f74754ebdbfc544b05a25861273d3390565b6000826000036127b2576127ab8285612e93565b9050610f52565b6000826127c0856001612e56565b6127ca9190612fd0565b6127d48587612e7c565b6127de9190612e7c565b905060006001846127ef8783612e56565b6127f99190612fd0565b6128039190612e69565b905061280f8183612e93565b9695505050505050565b612823828261172e565b6128525760405163e2517d3f60e01b81526001600160a01b038216600482015260248101839052604401610c0c565b5050565b60025460ff1661129857604051638dfc202b60e01b815260040160405180910390fd5b60025460ff16156112985760405163d93c066560e01b815260040160405180910390fd5b6000602082840312156128af57600080fd5b5035919050565b6000815180845260005b818110156128dc576020818501810151868301820152016128c0565b506000602082860101526020601f19601f83011685010191505092915050565b60006101008083526129108184018c6128b6565b90508281036020840152612924818b6128b6565b6001600160a01b0399909916604084015250506060810195909552608085019390935260a084019190915260c0830152151560e09091015292915050565b60006020828403121561297457600080fd5b81356001600160e01b031981168114610f5257600080fd5b600061014060018060a01b038d1683528b60208401528a60408401528960608401528860808401528760a08401528660c08401528560e0840152806101008401526129d9818401866128b6565b9150508215156101208301529b9a5050505050505050505050565b80356001600160a01b0381168114612a0b57600080fd5b919050565b600060208284031215612a2257600080fd5b610f52826129f4565b60c081526000612a3e60c08301896128b6565b602083019790975250604081019490945260608401929092526080830152151560a090910152919050565b634e487b7160e01b600052604160045260246000fd5b600082601f830112612a9057600080fd5b813567ffffffffffffffff80821115612aab57612aab612a69565b604051601f8301601f19908116603f01168101908282118183101715612ad357612ad3612a69565b81604052838152866020858801011115612aec57600080fd5b836020870160208301376000602085830101528094505050505092915050565b60008060408385031215612b1f57600080fd5b612b28836129f4565b9150602083013567ffffffffffffffff811115612b4457600080fd5b612b5085828601612a7f565b9150509250929050565b600080600060608486031215612b6f57600080fd5b833567ffffffffffffffff80821115612b8757600080fd5b612b9387838801612a7f565b94506020860135915080821115612ba957600080fd5b50612bb686828701612a7f565b925050604084013590509250925092565b60008060408385031215612bda57600080fd5b82359150612bea602084016129f4565b90509250929050565b60008060408385031215612c0657600080fd5b8235915060208301358015158114612c1d57600080fd5b809150509250929050565b600080600060608486031215612c3d57600080fd5b8335925060208401359150604084013567ffffffffffffffff811115612c6257600080fd5b612c6e86828701612a7f565b9150509250925092565b600181811c90821680612c8c57607f821691505b602082108103612cac57634e487b7160e01b600052602260045260246000fd5b50919050565b6020808252600c908201526b2737ba1030b71030b236b4b760a11b604082015260600190565b601f82111561125757600081815260208120601f850160051c81016020861015612cff5750805b601f850160051c820191505b81811015612d1e57828155600101612d0b565b505050505050565b815167ffffffffffffffff811115612d4057612d40612a69565b612d5481612d4e8454612c78565b84612cd8565b602080601f831160018114612d895760008415612d715750858301515b600019600386901b1c1916600185901b178555612d1e565b600085815260208120601f198616915b82811015612db857888601518255948401946001909101908401612d99565b5085821015612dd65787850151600019600388901b60f8161c191681555b5050505050600190811b01905550565b602081526000610f5260208301846128b6565b6020808252601490820152732737ba1030b71030b1ba34bb329036b2b6b132b960611b604082015260600190565b634e487b7160e01b600052601160045260246000fd5b600060018201612e4f57612e4f612e27565b5060010190565b8082018082111561096857610968612e27565b8181038181111561096857610968612e27565b808202811582820484141761096857610968612e27565b600082612eb057634e487b7160e01b600052601260045260246000fd5b500490565b634e487b7160e01b600052603260045260246000fd5b828152604060208201526000612ee460408301846128b6565b949350505050565b600181815b80851115612f27578160001904821115612f0d57612f0d612e27565b80851615612f1a57918102915b93841c9390800290612ef1565b509250929050565b600082612f3e57506001610968565b81612f4b57506000610968565b8160018114612f615760028114612f6b57612f87565b6001915050610968565b60ff841115612f7c57612f7c612e27565b50506001821b610968565b5060208310610133831016604e8410600b8410161715612faa575081810a610968565b612fb48383612eec565b8060001904821115612fc857612fc8612e27565b029392505050565b6000610f528383612f2f56fea49807205ce4d355092ef5a8a18f56e8913cf4a201fbe287825b095693c21775829b824e2329e205435d941c9f13baf578548505283d29261236d8e6596d4636a2646970667358221220bcf4d4cbcc400331cf9ceac73ff2d75279b4c04d0cc80006fd288cc6d0f8525e64736f6c63430008140033",
  "linkReferences": {},
  "deployedLinkReferences": {}
}